{
  "_format": "hh-sol-artifact-1",
  "contractName": "TokenDistributor",
  "sourceName": "contracts/gitcoin/TokenDistributor.sol",
  "abi": [
    {
      "inputs": [
        {
          "internalType": "address",
          "name": "_token",
          "type": "address"
        },
        {
          "internalType": "address",
          "name": "_timeLock",
          "type": "address"
        },
        {
          "internalType": "bytes32",
          "name": "_merkleRoot",
          "type": "bytes32"
        }
      ],
      "stateMutability": "nonpayable",
      "type": "constructor"
    },
    {
      "anonymous": false,
      "inputs": [
        {
          "indexed": false,
          "internalType": "uint256",
          "name": "user_id",
          "type": "uint256"
        },
        {
          "indexed": false,
          "internalType": "address",
          "name": "account",
          "type": "address"
        },
        {
          "indexed": false,
          "internalType": "uint256",
          "name": "amount",
          "type": "uint256"
        },
        {
          "indexed": false,
          "internalType": "bytes32",
          "name": "leaf",
          "type": "bytes32"
        }
      ],
      "name": "Claimed",
      "type": "event"
    },
    {
      "anonymous": false,
      "inputs": [
        {
          "indexed": false,
          "internalType": "uint256",
          "name": "amount",
          "type": "uint256"
        }
      ],
      "name": "TransferUnclaimed",
      "type": "event"
    },
    {
      "inputs": [],
      "name": "CONTRACT_ACTIVE",
      "outputs": [
        {
          "internalType": "uint256",
          "name": "",
          "type": "uint256"
        }
      ],
      "stateMutability": "view",
      "type": "function"
    },
    {
      "inputs": [],
      "name": "HALVE_PERIOD",
      "outputs": [
        {
          "internalType": "uint256",
          "name": "",
          "type": "uint256"
        }
      ],
      "stateMutability": "view",
      "type": "function"
    },
    {
      "inputs": [],
      "name": "INITIAL_AWARD",
      "outputs": [
        {
          "internalType": "uint256",
          "name": "",
          "type": "uint256"
        }
      ],
      "stateMutability": "view",
      "type": "function"
    },
    {
      "inputs": [
        {
          "internalType": "bytes",
          "name": "sender_signature",
          "type": "bytes"
        },
        {
          "internalType": "address",
          "name": "expected_signer",
          "type": "address"
        }
      ],
      "name": "checkSignedBy",
      "outputs": [
        {
          "internalType": "bool",
          "name": "",
          "type": "bool"
        }
      ],
      "stateMutability": "view",
      "type": "function"
    },
    {
      "inputs": [
        {
          "internalType": "uint32",
          "name": "user_id",
          "type": "uint32"
        },
        {
          "internalType": "address",
          "name": "delegate_to",
          "type": "address"
        },
        {
          "internalType": "bytes32[]",
          "name": "merkle_proof",
          "type": "bytes32[]"
        },
        {
          "internalType": "address",
          "name": "temporary_address",
          "type": "address"
        },
        {
          "internalType": "bytes",
          "name": "sender_signature",
          "type": "bytes"
        }
      ],
      "name": "claimTokens",
      "outputs": [],
      "stateMutability": "nonpayable",
      "type": "function"
    },
    {
      "inputs": [],
      "name": "currentAward",
      "outputs": [
        {
          "internalType": "uint256",
          "name": "",
          "type": "uint256"
        }
      ],
      "stateMutability": "view",
      "type": "function"
    },
    {
      "inputs": [],
      "name": "deployTime",
      "outputs": [
        {
          "internalType": "uint256",
          "name": "",
          "type": "uint256"
        }
      ],
      "stateMutability": "view",
      "type": "function"
    },
    {
      "inputs": [],
      "name": "hashedSender",
      "outputs": [
        {
          "internalType": "bytes32",
          "name": "",
          "type": "bytes32"
        }
      ],
      "stateMutability": "view",
      "type": "function"
    },
    {
      "inputs": [
        {
          "internalType": "uint256",
          "name": "index",
          "type": "uint256"
        }
      ],
      "name": "isClaimed",
      "outputs": [
        {
          "internalType": "bool",
          "name": "",
          "type": "bool"
        }
      ],
      "stateMutability": "view",
      "type": "function"
    },
    {
      "inputs": [],
      "name": "merkleRoot",
      "outputs": [
        {
          "internalType": "bytes32",
          "name": "",
          "type": "bytes32"
        }
      ],
      "stateMutability": "view",
      "type": "function"
    },
    {
      "inputs": [],
      "name": "nextHalvePeriod",
      "outputs": [
        {
          "internalType": "uint256",
          "name": "",
          "type": "uint256"
        }
      ],
      "stateMutability": "view",
      "type": "function"
    },
    {
      "inputs": [],
      "name": "packedSender",
      "outputs": [
        {
          "internalType": "bytes",
          "name": "",
          "type": "bytes"
        }
      ],
      "stateMutability": "view",
      "type": "function"
    },
    {
      "inputs": [
        {
          "internalType": "bytes",
          "name": "sender_signature",
          "type": "bytes"
        }
      ],
      "name": "senderSigner",
      "outputs": [
        {
          "internalType": "address",
          "name": "",
          "type": "address"
        }
      ],
      "stateMutability": "view",
      "type": "function"
    },
    {
      "inputs": [],
      "name": "timeLockContract",
      "outputs": [
        {
          "internalType": "address",
          "name": "",
          "type": "address"
        }
      ],
      "stateMutability": "view",
      "type": "function"
    },
    {
      "inputs": [],
      "name": "timeTillAwardHalve",
      "outputs": [
        {
          "internalType": "uint256",
          "name": "",
          "type": "uint256"
        }
      ],
      "stateMutability": "view",
      "type": "function"
    },
    {
      "inputs": [],
      "name": "token",
      "outputs": [
        {
          "internalType": "address",
          "name": "",
          "type": "address"
        }
      ],
      "stateMutability": "view",
      "type": "function"
    },
    {
      "inputs": [],
      "name": "transferUnclaimed",
      "outputs": [],
      "stateMutability": "nonpayable",
      "type": "function"
    }
  ],
  "bytecode": "0x61010060405234801561001157600080fd5b50604051611aa9380380611aa98339818101604052606081101561003457600080fd5b5080516020808301516040938401516001600160601b0319606085811b8216608090815260e084905284821b90921660c09081524260a09081528851918201895260039382019384526247544360e81b908201529182528651808801885260058152640312e302e360dc1b8187015294820194909452600195810195909552309285019290925291926100c6906100d2565b6000555061015b915050565b805180516020918201208183015180519083012060408085015160608087015183517f8b73c3c69bb8fe3d512ecc4cf759cc79239f7b179b0ffacaa9a75d522b39400f81890152808501969096529085019390935260808401526001600160a01b0390911660a0808401919091528151808403909101815260c090920190528051910120919050565b60805160601c60a05160c05160601c60e0516118e66101c3600039806104c35280610ac95250806104e752806106a952508061050f528061053e52806107f652806109105250806105ba52806106dd5280610c145280610dcf528061122f52506118e66000f3fe608060405234801561001057600080fd5b506004361061011a5760003560e01c80637a40624b116100b2578063d076bbca11610081578063e66b20c611610066578063e66b20c614610350578063efb965f014610454578063fc0c546a1461045c5761011a565b8063d076bbca14610340578063dd15603f146103485761011a565b80637a40624b146102a357806393840107146102ab5780639e34070f1461031b578063a73401c3146103385761011a565b80632f660362116100ee5780632f660362146101c65780632f986d3a146101f757806352e88c84146101ff57806378baeac7146102095761011a565b8062a21a351461011f578063069eaab41461019c5780631c47b753146101b65780632eb4a7ab146101be575b600080fd5b610127610464565b6040805160208082528351818301528351919283929083019185019080838360005b83811015610161578181015183820152602001610149565b50505050905090810190601f16801561018e5780820380516001836020036101000a031916815260200191505b509250505060405180910390f35b6101a46104ad565b60408051918252519081900360200190f35b6101a46104ba565b6101a46104c1565b6101ce6104e5565b6040805173ffffffffffffffffffffffffffffffffffffffff9092168252519081900360200190f35b6101a4610509565b610207610538565b005b61028f6004803603604081101561021f57600080fd5b81019060208101813564010000000081111561023a57600080fd5b82018360208201111561024c57600080fd5b8035906020019184600183028401116401000000008311171561026e57600080fd5b91935091503573ffffffffffffffffffffffffffffffffffffffff166107df565b604080519115158252519081900360200190f35b6101a46107f4565b6101ce600480360360208110156102c157600080fd5b8101906020810181356401000000008111156102dc57600080fd5b8201836020820111156102ee57600080fd5b8035906020019184600183028401116401000000008311171561031057600080fd5b509092509050610818565b61028f6004803603602081101561033157600080fd5b50356108d0565b6101a46108f4565b6101a4610905565b6101a461090c565b610207600480360360a081101561036657600080fd5b63ffffffff8235169173ffffffffffffffffffffffffffffffffffffffff602082013516918101906060810160408201356401000000008111156103a957600080fd5b8201836020820111156103bb57600080fd5b803590602001918460208302840111640100000000831117156103dd57600080fd5b9193909273ffffffffffffffffffffffffffffffffffffffff8335169260408101906020013564010000000081111561041557600080fd5b82018360208201111561042757600080fd5b8035906020019184600183028401116401000000008311171561044957600080fd5b509092509050610974565b6101a4610d7c565b6101ce610dcd565b604080517f19457468657265756d205369676e6564204d6573736167653a0a32300000000060208201523360601b603c8201528151603081830301815260509091019091525b90565b6803cb71f51fc558000081565b6201518081565b7f000000000000000000000000000000000000000000000000000000000000000081565b7f000000000000000000000000000000000000000000000000000000000000000081565b620151807f00000000000000000000000000000000000000000000000000000000000000004203819006900390565b62278d007f0000000000000000000000000000000000000000000000000000000000000000014210156105b6576040517f08c379a000000000000000000000000000000000000000000000000000000000815260040180806020018281038252602b815260200180611791602b913960400191505060405180910390fd5b60007f000000000000000000000000000000000000000000000000000000000000000073ffffffffffffffffffffffffffffffffffffffff166370a08231306040518263ffffffff1660e01b8152600401808273ffffffffffffffffffffffffffffffffffffffff16815260200191505060206040518083038186803b15801561063f57600080fd5b505afa158015610653573d6000803e3d6000fd5b505050506040513d602081101561066957600080fd5b5051604080517fa9059cbb00000000000000000000000000000000000000000000000000000000815273ffffffffffffffffffffffffffffffffffffffff7f0000000000000000000000000000000000000000000000000000000000000000811660048301526024820184905291519293507f00000000000000000000000000000000000000000000000000000000000000009091169163a9059cbb916044808201926020929091908290030181600087803b15801561072857600080fd5b505af115801561073c573d6000803e3d6000fd5b505050506040513d602081101561075257600080fd5b50516107a9576040517f08c379a000000000000000000000000000000000000000000000000000000000815260040180806020018281038252602c8152602001806117de602c913960400191505060405180910390fd5b6040805182815290517f0ddb3ab0ee452a393437c5d8f69f476f1dce0fae03bf5942b36a4e23c3d378369181900360200190a150565b60006107ec848484610df1565b949350505050565b7f000000000000000000000000000000000000000000000000000000000000000081565b6000803360405160200180807f19457468657265756d205369676e6564204d6573736167653a0a323000000000815250601c018273ffffffffffffffffffffffffffffffffffffffff1660601b815260140191505060405160208183030381529060405280519060200120905060006108c78286868080601f016020809104026020016040519081016040528093929190818152602001838380828437600092019190915250610f8592505050565b95945050505050565b610100810460009081526001602081905260409091205460ff9092161b9081161490565b60006108fe610509565b4201905090565b62278d0081565b60007f00000000000000000000000000000000000000000000000000000000000000004203620151808104600281900a6803cb71f51fc558000081111561095957600093505050506104aa565b806803cb71f51fc55800008161096b57fe5b04935050505090565b6109838763ffffffff166108d0565b156109d9576040517f08c379a00000000000000000000000000000000000000000000000000000000081526004018080602001828103825260298152602001806118536029913960400191505060405180910390fd5b73ffffffffffffffffffffffffffffffffffffffff8316610a45576040517f08c379a000000000000000000000000000000000000000000000000000000000815260040180806020018281038252602b815260200180611744602b913960400191505060405180910390fd5b60008784604051602001808363ffffffff1681526020018273ffffffffffffffffffffffffffffffffffffffff16815260200192505050604051602081830303815290604052805190602001209050610af48686808060200260200160405190810160405280939291908181526020018383602002808284376000920191909152507f0000000000000000000000000000000000000000000000000000000000000000925085915061101f9050565b610b49576040517f08c379a000000000000000000000000000000000000000000000000000000000815260040180806020018281038252602781526020018061182c6027913960400191505060405180910390fd5b6000610b56848487610df1565b9050610b986040518060400160405280601081526020017f69735369676e656442792025732025730000000000000000000000000000000081525082876110c8565b80610bee576040517f08c379a000000000000000000000000000000000000000000000000000000000815260040180806020018281038252603581526020018061187c6035913960400191505060405180910390fd5b610bf7886111e7565b610c068963ffffffff16611294565b6000610c1061090c565b90507f000000000000000000000000000000000000000000000000000000000000000073ffffffffffffffffffffffffffffffffffffffff1663a9059cbb33836040518363ffffffff1660e01b8152600401808373ffffffffffffffffffffffffffffffffffffffff16815260200182815260200192505050602060405180830381600087803b158015610ca357600080fd5b505af1158015610cb7573d6000803e3d6000fd5b505050506040513d6020811015610ccd57600080fd5b5051610d24576040517f08c379a00000000000000000000000000000000000000000000000000000000081526004018080602001828103825260228152602001806117bc6022913960400191505060405180910390fd5b6040805163ffffffff8c1681523360208201528082018390526060810185905290517f04672052dcb6b5b19a9cc2ec1b8f447f1f5e47b5e24cfa5e4ffb640d63ca2be79181900360800190a150505050505050505050565b604080517f19457468657265756d205369676e6564204d6573736167653a0a3230000000006020808301919091523360601b603c830152825160308184030181526050909201909252805191012090565b7f000000000000000000000000000000000000000000000000000000000000000081565b6000610e326040518060400160405280600d81526020017f6d73672e73656e64657220257300000000000000000000000000000000000000815250336112bc565b604080517f19457468657265756d205369676e6564204d6573736167653a0a3230000000006020808301919091523360601b603c8301528251603081840301815260509092019092528051910120610e89816113d0565b610ec885858080601f01602080910402602001604051908101604052809392919081815260200183838082843760009201919091525061144292505050565b6000610f0a8287878080601f016020809104026020016040519081016040528093929190818152602001838380828437600092019190915250610f8592505050565b9050610f4b6040518060400160405280601381526020017f7265636f7665726564207369676e657220257300000000000000000000000000815250826112bc565b8373ffffffffffffffffffffffffffffffffffffffff168173ffffffffffffffffffffffffffffffffffffffff1614925050509392505050565b60008151604114610ff757604080517f08c379a000000000000000000000000000000000000000000000000000000000815260206004820152601f60248201527f45434453413a20696e76616c6964207369676e6174757265206c656e67746800604482015290519081900360640190fd5b60208201516040830151606084015160001a61101586828585611534565b9695505050505050565b600081815b85518110156110bd57600086828151811061103b57fe5b6020026020010151905080831161108257828160405160200180838152602001828152602001925050506040516020818303038152906040528051906020012092506110b4565b808360405160200180838152602001828152602001925050506040516020818303038152906040528051906020012092505b50600101611024565b509092149392505050565b6111e2838383604051602401808060200184151581526020018373ffffffffffffffffffffffffffffffffffffffff168152602001828103825285818151815260200191508051906020019080838360005b8381101561113257818101518382015260200161111a565b50505050905090810190601f16801561115f5780820380516001836020036101000a031916815260200191505b50604080517fffffffffffffffffffffffffffffffffffffffffffffffffffffffffffffffe08184030181529190526020810180517bffffffffffffffffffffffffffffffffffffffffffffffffffffffff167f932bbb380000000000000000000000000000000000000000000000000000000017905294506117229350505050565b505050565b604080517f5c19a95c00000000000000000000000000000000000000000000000000000000815273ffffffffffffffffffffffffffffffffffffffff838116600483015291517f000000000000000000000000000000000000000000000000000000000000000092831691635c19a95c91602480830192600092919082900301818387803b15801561127857600080fd5b505af115801561128c573d6000803e3d6000fd5b505050505050565b61010081046000908152600160208190526040909120805460ff9093169190911b9091179055565b6113cc828260405160240180806020018373ffffffffffffffffffffffffffffffffffffffff168152602001828103825284818151815260200191508051906020019080838360005b8381101561131d578181015183820152602001611305565b50505050905090810190601f16801561134a5780820380516001836020036101000a031916815260200191505b50604080517fffffffffffffffffffffffffffffffffffffffffffffffffffffffffffffffe08184030181529190526020810180517bffffffffffffffffffffffffffffffffffffffffffffffffffffffff167f319af33300000000000000000000000000000000000000000000000000000000179052935061172292505050565b5050565b6040805160248082018490528251808303909101815260449091019091526020810180517bffffffffffffffffffffffffffffffffffffffffffffffffffffffff167f27b7cf850000000000000000000000000000000000000000000000000000000017905261143f90611722565b50565b61143f816040516024018080602001828103825283818151815260200191508051906020019080838360005b8381101561148657818101518382015260200161146e565b50505050905090810190601f1680156114b35780820380516001836020036101000a031916815260200191505b50604080517fffffffffffffffffffffffffffffffffffffffffffffffffffffffffffffffe08184030181529190526020810180517bffffffffffffffffffffffffffffffffffffffffffffffffffffffff167f0be77f56000000000000000000000000000000000000000000000000000000001790529250611722915050565b60007f7fffffffffffffffffffffffffffffff5d576e7357a4501ddfe92f46681b20a08211156115af576040517f08c379a000000000000000000000000000000000000000000000000000000000815260040180806020018281038252602281526020018061176f6022913960400191505060405180910390fd5b8360ff16601b14806115c457508360ff16601c145b611619576040517f08c379a000000000000000000000000000000000000000000000000000000000815260040180806020018281038252602281526020018061180a6022913960400191505060405180910390fd5b600060018686868660405160008152602001604052604051808581526020018460ff1681526020018381526020018281526020019450505050506020604051602081039080840390855afa158015611675573d6000803e3d6000fd5b50506040517fffffffffffffffffffffffffffffffffffffffffffffffffffffffffffffffe0015191505073ffffffffffffffffffffffffffffffffffffffff81166108c757604080517f08c379a000000000000000000000000000000000000000000000000000000000815260206004820152601860248201527f45434453413a20696e76616c6964207369676e61747572650000000000000000604482015290519081900360640190fd5b80516a636f6e736f6c652e6c6f67602083016000808483855afa505050505056fe546f6b656e4469737472696275746f723a20496e76616c69642074656d706f726172795f6164647265737345434453413a20696e76616c6964207369676e6174757265202773272076616c7565546f6b656e4469737472696275746f723a20436f6e7472616374206973207374696c6c206163746976652e546f6b656e4469737472696275746f723a205472616e73666572206661696c65642e546f6b656e4469737472696275746f723a205472616e7366657220756e636c61696d6564206661696c65642e45434453413a20696e76616c6964207369676e6174757265202776272076616c7565546f6b656e4469737472696275746f723a2056616c69642050726f6f662052657175697265642e546f6b656e4469737472696275746f723a20546f6b656e7320616c726561647920636c61696d65642e546f6b656e4469737472696275746f723a2056616c6964206d73672e73656e646572205369676e6174757265207265717569726564a2646970667358221220f8460ceb6ea5106b64a4acf0ab9f562a56a44893e4825579a5e05ee0c9c8651b64736f6c634300060c0033",
  "linkReferences": {},
  "deployedLinkReferences": {}
}