{
  "_format": "hh-sol-artifact-1",
  "contractName": "Mock",
  "sourceName": "contracts/Mock.sol",
  "abi": [
    {
      "inputs": [],
      "stateMutability": "nonpayable",
      "type": "constructor"
    },
    {
      "inputs": [
        {
          "internalType": "string",
          "name": "_key",
          "type": "string"
        }
      ],
      "name": "checkKey",
      "outputs": [
        {
          "internalType": "bool",
          "name": "",
          "type": "bool"
        }
      ],
      "stateMutability": "view",
      "type": "function"
    },
    {
      "inputs": [
        {
          "internalType": "string",
          "name": "_proof",
          "type": "string"
        }
      ],
      "name": "checkProof",
      "outputs": [
        {
          "internalType": "bool",
          "name": "",
          "type": "bool"
        }
      ],
      "stateMutability": "pure",
      "type": "function"
    },
    {
      "inputs": [
        {
          "internalType": "string",
          "name": "_proof",
          "type": "string"
        }
      ],
      "name": "claim",
      "outputs": [],
      "stateMutability": "nonpayable",
      "type": "function"
    },
    {
      "inputs": [
        {
          "internalType": "string",
          "name": "",
          "type": "string"
        }
      ],
      "name": "githubKeys",
      "outputs": [
        {
          "internalType": "bool",
          "name": "",
          "type": "bool"
        }
      ],
      "stateMutability": "view",
      "type": "function"
    },
    {
      "inputs": [],
      "name": "proof",
      "outputs": [
        {
          "internalType": "string",
          "name": "",
          "type": "string"
        }
      ],
      "stateMutability": "view",
      "type": "function"
    },
    {
      "inputs": [
        {
          "internalType": "string",
          "name": "_key",
          "type": "string"
        }
      ],
      "name": "setKey",
      "outputs": [],
      "stateMutability": "nonpayable",
      "type": "function"
    }
  ],
  "bytecode": "0x608060405234801561001057600080fd5b506100596040518060400160405280600e81526020017f4465706c6f79696e67204d6f636b00000000000000000000000000000000000081525061009360201b6102e61760201c565b60016000604051610069906101b7565b908152602001604051809103902060006101000a81548160ff021916908315150217905550610282565b61012f816040516024016100a791906101cc565b6040516020818303038152906040527f41304fac000000000000000000000000000000000000000000000000000000007bffffffffffffffffffffffffffffffffffffffffffffffffffffffff19166020820180517bffffffffffffffffffffffffffffffffffffffffffffffffffffffff838183161783525050505061013260201b60201c565b50565b60008151905060006a636f6e736f6c652e6c6f679050602083016000808483855afa5050505050565b6000610166826101ee565b61017081856101f9565b9350610180818560208601610215565b61018981610248565b840191505092915050565b60006101a160048361020a565b91506101ac82610259565b600482019050919050565b60006101c282610194565b9150819050919050565b600060208201905081810360008301526101e6818461015b565b905092915050565b600081519050919050565b600082825260208201905092915050565b600081905092915050565b60005b83811015610233578082015181840152602081019050610218565b83811115610242576000848401525b50505050565b6000601f19601f8301169050919050565b7f7465737400000000000000000000000000000000000000000000000000000000600082015250565b6107ed806102916000396000f3fe608060405234801561001057600080fd5b50600436106100625760003560e01c80632287f46d146100675780634923100e14610097578063af42d106146100c7578063da7d6b4a146100e3578063f3fe12c914610113578063faf924cf1461012f575b600080fd5b610081600480360381019061007c919061050c565b61014d565b60405161008e91906105dd565b60405180910390f35b6100b160048036038101906100ac919061050c565b610183565b6040516100be91906105dd565b60405180910390f35b6100e160048036038101906100dc919061050c565b6101b7565b005b6100fd60048036038101906100f8919061050c565b6101f1565b60405161010a91906105dd565b60405180910390f35b61012d6004803603810190610128919061050c565b61023e565b005b610137610258565b60405161014491906105f8565b60405180910390f35b6000818051602081018201805184825260208301602085012081835280955050505050506000915054906101000a900460ff1681565b6000808260405161019491906105c6565b908152602001604051809103902060009054906101000a900460ff169050919050565b60016000826040516101c991906105c6565b908152602001604051809103902060006101000a81548160ff02191690831515021790555050565b600080610233836040518060400160405280600581526020017f70726f6f6600000000000000000000000000000000000000000000000000000081525061037f565b905080915050919050565b8060019080519060200190610254929190610401565b5050565b60018054610265906106e5565b80601f0160208091040260200160405190810160405280929190818152602001828054610291906106e5565b80156102de5780601f106102b3576101008083540402835291602001916102de565b820191906000526020600020905b8154815290600101906020018083116102c157829003601f168201915b505050505081565b61037c816040516024016102fa91906105f8565b6040516020818303038152906040527f41304fac000000000000000000000000000000000000000000000000000000007bffffffffffffffffffffffffffffffffffffffffffffffffffffffff19166020820180517bffffffffffffffffffffffffffffffffffffffffffffffffffffffff83818316178352505050506103d8565b50565b60008160405160200161039291906105c6565b60405160208183030381529060405280519060200120836040516020016103b991906105c6565b6040516020818303038152906040528051906020012014905092915050565b60008151905060006a636f6e736f6c652e6c6f679050602083016000808483855afa5050505050565b82805461040d906106e5565b90600052602060002090601f01602090048101928261042f5760008555610476565b82601f1061044857805160ff1916838001178555610476565b82800160010185558215610476579182015b8281111561047557825182559160200191906001019061045a565b5b5090506104839190610487565b5090565b5b808211156104a0576000816000905550600101610488565b5090565b60006104b76104b28461063f565b61061a565b9050828152602081018484840111156104cf57600080fd5b6104da8482856106a3565b509392505050565b600082601f8301126104f357600080fd5b81356105038482602086016104a4565b91505092915050565b60006020828403121561051e57600080fd5b600082013567ffffffffffffffff81111561053857600080fd5b610544848285016104e2565b91505092915050565b61055681610697565b82525050565b600061056782610670565b610571818561067b565b93506105818185602086016106b2565b61058a816107a6565b840191505092915050565b60006105a082610670565b6105aa818561068c565b93506105ba8185602086016106b2565b80840191505092915050565b60006105d28284610595565b915081905092915050565b60006020820190506105f2600083018461054d565b92915050565b60006020820190508181036000830152610612818461055c565b905092915050565b6000610624610635565b90506106308282610717565b919050565b6000604051905090565b600067ffffffffffffffff82111561065a57610659610777565b5b610663826107a6565b9050602081019050919050565b600081519050919050565b600082825260208201905092915050565b600081905092915050565b60008115159050919050565b82818337600083830152505050565b60005b838110156106d05780820151818401526020810190506106b5565b838111156106df576000848401525b50505050565b600060028204905060018216806106fd57607f821691505b6020821081141561071157610710610748565b5b50919050565b610720826107a6565b810181811067ffffffffffffffff8211171561073f5761073e610777565b5b80604052505050565b7f4e487b7100000000000000000000000000000000000000000000000000000000600052602260045260246000fd5b7f4e487b7100000000000000000000000000000000000000000000000000000000600052604160045260246000fd5b6000601f19601f830116905091905056fea2646970667358221220082969e4653fb3226df3f894fccfa99f08d04893e7f3fbb7020038d605d3ec3f64736f6c63430008040033",
  "linkReferences": {},
  "deployedLinkReferences": {}
}