{
  "_format": "hh-sol-artifact-1",
  "contractName": "Mock",
  "sourceName": "contracts/Mock.sol",
  "abi": [
    {
      "inputs": [],
      "stateMutability": "nonpayable",
      "type": "constructor"
    },
    {
      "inputs": [],
      "name": "checkInteraction",
      "outputs": [
        {
          "internalType": "bool",
          "name": "",
          "type": "bool"
        }
      ],
      "stateMutability": "view",
      "type": "function"
    },
    {
      "inputs": [
        {
          "internalType": "string",
          "name": "_key",
          "type": "string"
        }
      ],
      "name": "checkKey",
      "outputs": [
        {
          "internalType": "bool",
          "name": "",
          "type": "bool"
        }
      ],
      "stateMutability": "view",
      "type": "function"
    },
    {
      "inputs": [
        {
          "internalType": "string",
          "name": "_proof",
          "type": "string"
        }
      ],
      "name": "checkProof",
      "outputs": [
        {
          "internalType": "bool",
          "name": "",
          "type": "bool"
        }
      ],
      "stateMutability": "pure",
      "type": "function"
    },
    {
      "inputs": [
        {
          "internalType": "string",
          "name": "_proof",
          "type": "string"
        }
      ],
      "name": "claim",
      "outputs": [],
      "stateMutability": "nonpayable",
      "type": "function"
    },
    {
      "inputs": [
        {
          "internalType": "string",
          "name": "",
          "type": "string"
        }
      ],
      "name": "githubKeys",
      "outputs": [
        {
          "internalType": "bool",
          "name": "",
          "type": "bool"
        }
      ],
      "stateMutability": "view",
      "type": "function"
    },
    {
      "inputs": [
        {
          "internalType": "address",
          "name": "",
          "type": "address"
        }
      ],
      "name": "interactions",
      "outputs": [
        {
          "internalType": "bool",
          "name": "",
          "type": "bool"
        }
      ],
      "stateMutability": "view",
      "type": "function"
    },
    {
      "inputs": [],
      "name": "proof",
      "outputs": [
        {
          "internalType": "string",
          "name": "",
          "type": "string"
        }
      ],
      "stateMutability": "view",
      "type": "function"
    },
    {
      "inputs": [],
      "name": "setInteraction",
      "outputs": [],
      "stateMutability": "nonpayable",
      "type": "function"
    },
    {
      "inputs": [
        {
          "internalType": "string",
          "name": "_key",
          "type": "string"
        }
      ],
      "name": "setKey",
      "outputs": [],
      "stateMutability": "nonpayable",
      "type": "function"
    }
  ],
  "bytecode": "0x60806040523480156200001157600080fd5b506200005d6040518060400160405280600e81526020017f4465706c6f79696e67204d6f636b0000000000000000000000000000000000008152506200009a60201b620004931760201c565b600160006040516200006f90620001ce565b908152602001604051809103902060006101000a81548160ff021916908315150217905550620002a0565b6200013a81604051602401620000b19190620001e5565b6040516020818303038152906040527f41304fac000000000000000000000000000000000000000000000000000000007bffffffffffffffffffffffffffffffffffffffffffffffffffffffff19166020820180517bffffffffffffffffffffffffffffffffffffffffffffffffffffffff83818316178352505050506200013d60201b60201c565b50565b60008151905060006a636f6e736f6c652e6c6f679050602083016000808483855afa5050505050565b6000620001738262000209565b6200017f818562000214565b93506200019181856020860162000230565b6200019c8162000266565b840191505092915050565b6000620001b660048362000225565b9150620001c38262000277565b600482019050919050565b6000620001db82620001a7565b9150819050919050565b6000602082019050818103600083015262000201818462000166565b905092915050565b600081519050919050565b600082825260208201905092915050565b600081905092915050565b60005b838110156200025057808201518184015260208101905062000233565b8381111562000260576000848401525b50505050565b6000601f19601f8301169050919050565b7f7465737400000000000000000000000000000000000000000000000000000000600082015250565b610a2180620002b06000396000f3fe608060405234801561001057600080fd5b50600436106100935760003560e01c806382fb48771161006657806382fb487714610146578063af42d10614610150578063da7d6b4a1461016c578063f3fe12c91461019c578063faf924cf146101b857610093565b806308a6f252146100985780632287f46d146100c85780634923100e146100f85780637c815aab14610128575b600080fd5b6100b260048036038101906100ad91906106ce565b6101d6565b6040516100bf91906107c8565b60405180910390f35b6100e260048036038101906100dd91906106f7565b6101f6565b6040516100ef91906107c8565b60405180910390f35b610112600480360381019061010d91906106f7565b61022c565b60405161011f91906107c8565b60405180910390f35b610130610260565b60405161013d91906107c8565b60405180910390f35b61014e6102b4565b005b61016a600480360381019061016591906106f7565b61030d565b005b610186600480360381019061018191906106f7565b610347565b60405161019391906107c8565b60405180910390f35b6101b660048036038101906101b191906106f7565b610394565b005b6101c0610405565b6040516101cd91906107e3565b60405180910390f35b60016020528060005260406000206000915054906101000a900460ff1681565b6000818051602081018201805184825260208301602085012081835280955050505050506000915054906101000a900460ff1681565b6000808260405161023d91906107b1565b908152602001604051809103902060009054906101000a900460ff169050919050565b6000600160003373ffffffffffffffffffffffffffffffffffffffff1673ffffffffffffffffffffffffffffffffffffffff16815260200190815260200160002060009054906101000a900460ff16905090565b60018060003373ffffffffffffffffffffffffffffffffffffffff1673ffffffffffffffffffffffffffffffffffffffff16815260200190815260200160002060006101000a81548160ff021916908315150217905550565b600160008260405161031f91906107b1565b908152602001604051809103902060006101000a81548160ff02191690831515021790555050565b600080610389836040518060400160405280600581526020017f70726f6f6600000000000000000000000000000000000000000000000000000081525061052c565b905080915050919050565b80600290805190602001906103aa9291906105ae565b5060018060003373ffffffffffffffffffffffffffffffffffffffff1673ffffffffffffffffffffffffffffffffffffffff16815260200190815260200160002060006101000a81548160ff02191690831515021790555050565b6002805461041290610902565b80601f016020809104026020016040519081016040528092919081815260200182805461043e90610902565b801561048b5780601f106104605761010080835404028352916020019161048b565b820191906000526020600020905b81548152906001019060200180831161046e57829003601f168201915b505050505081565b610529816040516024016104a791906107e3565b6040516020818303038152906040527f41304fac000000000000000000000000000000000000000000000000000000007bffffffffffffffffffffffffffffffffffffffffffffffffffffffff19166020820180517bffffffffffffffffffffffffffffffffffffffffffffffffffffffff8381831617835250505050610585565b50565b60008160405160200161053f91906107b1565b604051602081830303815290604052805190602001208360405160200161056691906107b1565b6040516020818303038152906040528051906020012014905092915050565b60008151905060006a636f6e736f6c652e6c6f679050602083016000808483855afa5050505050565b8280546105ba90610902565b90600052602060002090601f0160209004810192826105dc5760008555610623565b82601f106105f557805160ff1916838001178555610623565b82800160010185558215610623579182015b82811115610622578251825591602001919060010190610607565b5b5090506106309190610634565b5090565b5b8082111561064d576000816000905550600101610635565b5090565b600061066461065f8461082a565b610805565b90508281526020810184848401111561067c57600080fd5b6106878482856108c0565b509392505050565b60008135905061069e816109d4565b92915050565b600082601f8301126106b557600080fd5b81356106c5848260208601610651565b91505092915050565b6000602082840312156106e057600080fd5b60006106ee8482850161068f565b91505092915050565b60006020828403121561070957600080fd5b600082013567ffffffffffffffff81111561072357600080fd5b61072f848285016106a4565b91505092915050565b61074181610894565b82525050565b60006107528261085b565b61075c8185610866565b935061076c8185602086016108cf565b610775816109c3565b840191505092915050565b600061078b8261085b565b6107958185610877565b93506107a58185602086016108cf565b80840191505092915050565b60006107bd8284610780565b915081905092915050565b60006020820190506107dd6000830184610738565b92915050565b600060208201905081810360008301526107fd8184610747565b905092915050565b600061080f610820565b905061081b8282610934565b919050565b6000604051905090565b600067ffffffffffffffff82111561084557610844610994565b5b61084e826109c3565b9050602081019050919050565b600081519050919050565b600082825260208201905092915050565b600081905092915050565b600061088d826108a0565b9050919050565b60008115159050919050565b600073ffffffffffffffffffffffffffffffffffffffff82169050919050565b82818337600083830152505050565b60005b838110156108ed5780820151818401526020810190506108d2565b838111156108fc576000848401525b50505050565b6000600282049050600182168061091a57607f821691505b6020821081141561092e5761092d610965565b5b50919050565b61093d826109c3565b810181811067ffffffffffffffff8211171561095c5761095b610994565b5b80604052505050565b7f4e487b7100000000000000000000000000000000000000000000000000000000600052602260045260246000fd5b7f4e487b7100000000000000000000000000000000000000000000000000000000600052604160045260246000fd5b6000601f19601f8301169050919050565b6109dd81610882565b81146109e857600080fd5b5056fea2646970667358221220cbd931f5c0e60250844c49f74062396df0f4b8a929cd626bd09445b00bd6d11464736f6c63430008040033",
  "linkReferences": {},
  "deployedLinkReferences": {}
}