{
  "_format": "hh-sol-artifact-1",
  "contractName": "Mock",
  "sourceName": "contracts/Mock.sol",
  "abi": [
    {
      "inputs": [],
      "stateMutability": "nonpayable",
      "type": "constructor"
    },
    {
      "inputs": [
        {
          "internalType": "string",
          "name": "_key",
          "type": "string"
        }
      ],
      "name": "checkKey",
      "outputs": [
        {
          "internalType": "bool",
          "name": "",
          "type": "bool"
        }
      ],
      "stateMutability": "view",
      "type": "function"
    },
    {
      "inputs": [
        {
          "internalType": "string",
          "name": "_proof",
          "type": "string"
        }
      ],
      "name": "claim",
      "outputs": [],
      "stateMutability": "nonpayable",
      "type": "function"
    },
    {
      "inputs": [
        {
          "internalType": "string",
          "name": "",
          "type": "string"
        }
      ],
      "name": "githubKeys",
      "outputs": [
        {
          "internalType": "bool",
          "name": "",
          "type": "bool"
        }
      ],
      "stateMutability": "view",
      "type": "function"
    },
    {
      "inputs": [],
      "name": "proof",
      "outputs": [
        {
          "internalType": "string",
          "name": "",
          "type": "string"
        }
      ],
      "stateMutability": "view",
      "type": "function"
    },
    {
      "inputs": [
        {
          "internalType": "string",
          "name": "_key",
          "type": "string"
        }
      ],
      "name": "setKey",
      "outputs": [],
      "stateMutability": "nonpayable",
      "type": "function"
    }
  ],
  "bytecode": "0x608060405234801561001057600080fd5b506100596040518060400160405280600e81526020017f4465706c6f79696e67204d6f636b00000000000000000000000000000000000081525061005e60201b61025e1760201c565b6101e1565b6100fa81604051602401610072919061015f565b6040516020818303038152906040527f41304fac000000000000000000000000000000000000000000000000000000007bffffffffffffffffffffffffffffffffffffffffffffffffffffffff19166020820180517bffffffffffffffffffffffffffffffffffffffffffffffffffffffff83818316178352505050506100fd60201b60201c565b50565b60008151905060006a636f6e736f6c652e6c6f679050602083016000808483855afa5050505050565b600061013182610181565b61013b818561018c565b935061014b81856020860161019d565b610154816101d0565b840191505092915050565b600060208201905081810360008301526101798184610126565b905092915050565b600081519050919050565b600082825260208201905092915050565b60005b838110156101bb5780820151818401526020810190506101a0565b838111156101ca576000848401525b50505050565b6000601f19601f8301169050919050565b61070c806101f06000396000f3fe608060405234801561001057600080fd5b50600436106100575760003560e01c80632287f46d1461005c5780634923100e1461008c578063af42d106146100bc578063f3fe12c9146100d8578063faf924cf146100f4575b600080fd5b6100766004803603810190610071919061042b565b610112565b60405161008391906104fc565b60405180910390f35b6100a660048036038101906100a1919061042b565b610148565b6040516100b391906104fc565b60405180910390f35b6100d660048036038101906100d1919061042b565b61017c565b005b6100f260048036038101906100ed919061042b565b6101b6565b005b6100fc6101d0565b6040516101099190610517565b60405180910390f35b6000818051602081018201805184825260208301602085012081835280955050505050506000915054906101000a900460ff1681565b6000808260405161015991906104e5565b908152602001604051809103902060009054906101000a900460ff169050919050565b600160008260405161018e91906104e5565b908152602001604051809103902060006101000a81548160ff02191690831515021790555050565b80600190805190602001906101cc929190610320565b5050565b600180546101dd90610604565b80601f016020809104026020016040519081016040528092919081815260200182805461020990610604565b80156102565780601f1061022b57610100808354040283529160200191610256565b820191906000526020600020905b81548152906001019060200180831161023957829003601f168201915b505050505081565b6102f4816040516024016102729190610517565b6040516020818303038152906040527f41304fac000000000000000000000000000000000000000000000000000000007bffffffffffffffffffffffffffffffffffffffffffffffffffffffff19166020820180517bffffffffffffffffffffffffffffffffffffffffffffffffffffffff83818316178352505050506102f7565b50565b60008151905060006a636f6e736f6c652e6c6f679050602083016000808483855afa5050505050565b82805461032c90610604565b90600052602060002090601f01602090048101928261034e5760008555610395565b82601f1061036757805160ff1916838001178555610395565b82800160010185558215610395579182015b82811115610394578251825591602001919060010190610379565b5b5090506103a291906103a6565b5090565b5b808211156103bf5760008160009055506001016103a7565b5090565b60006103d66103d18461055e565b610539565b9050828152602081018484840111156103ee57600080fd5b6103f98482856105c2565b509392505050565b600082601f83011261041257600080fd5b81356104228482602086016103c3565b91505092915050565b60006020828403121561043d57600080fd5b600082013567ffffffffffffffff81111561045757600080fd5b61046384828501610401565b91505092915050565b610475816105b6565b82525050565b60006104868261058f565b610490818561059a565b93506104a08185602086016105d1565b6104a9816106c5565b840191505092915050565b60006104bf8261058f565b6104c981856105ab565b93506104d98185602086016105d1565b80840191505092915050565b60006104f182846104b4565b915081905092915050565b6000602082019050610511600083018461046c565b92915050565b60006020820190508181036000830152610531818461047b565b905092915050565b6000610543610554565b905061054f8282610636565b919050565b6000604051905090565b600067ffffffffffffffff82111561057957610578610696565b5b610582826106c5565b9050602081019050919050565b600081519050919050565b600082825260208201905092915050565b600081905092915050565b60008115159050919050565b82818337600083830152505050565b60005b838110156105ef5780820151818401526020810190506105d4565b838111156105fe576000848401525b50505050565b6000600282049050600182168061061c57607f821691505b602082108114156106305761062f610667565b5b50919050565b61063f826106c5565b810181811067ffffffffffffffff8211171561065e5761065d610696565b5b80604052505050565b7f4e487b7100000000000000000000000000000000000000000000000000000000600052602260045260246000fd5b7f4e487b7100000000000000000000000000000000000000000000000000000000600052604160045260246000fd5b6000601f19601f830116905091905056fea2646970667358221220adcd1ed8a46bae2d660b4a9bc785575c73459541815a9983df42762ba135f80064736f6c63430008040033",
  "linkReferences": {},
  "deployedLinkReferences": {}
}