{
  "_format": "hh-sol-artifact-1",
  "contractName": "Mock",
  "sourceName": "contracts/Mock.sol",
  "abi": [
    {
      "inputs": [],
      "stateMutability": "nonpayable",
      "type": "constructor"
    },
    {
      "inputs": [
        {
          "internalType": "string",
          "name": "_key",
          "type": "string"
        }
      ],
      "name": "checkKey",
      "outputs": [
        {
          "internalType": "bool",
          "name": "",
          "type": "bool"
        }
      ],
      "stateMutability": "view",
      "type": "function"
    },
    {
      "inputs": [
        {
          "internalType": "string",
          "name": "_proof",
          "type": "string"
        }
      ],
      "name": "claim",
      "outputs": [
        {
          "internalType": "bool",
          "name": "",
          "type": "bool"
        }
      ],
      "stateMutability": "pure",
      "type": "function"
    },
    {
      "inputs": [
        {
          "internalType": "string",
          "name": "",
          "type": "string"
        }
      ],
      "name": "githubKeys",
      "outputs": [
        {
          "internalType": "bool",
          "name": "",
          "type": "bool"
        }
      ],
      "stateMutability": "view",
      "type": "function"
    },
    {
      "inputs": [
        {
          "internalType": "string",
          "name": "_key",
          "type": "string"
        }
      ],
      "name": "setKey",
      "outputs": [],
      "stateMutability": "nonpayable",
      "type": "function"
    }
  ],
  "bytecode": "0x608060405234801561001057600080fd5b506100596040518060400160405280600e81526020017f4465706c6f79696e67204d6f636b00000000000000000000000000000000000081525061005e60201b6101ee1760201c565b6101e1565b6100fa81604051602401610072919061015f565b6040516020818303038152906040527f41304fac000000000000000000000000000000000000000000000000000000007bffffffffffffffffffffffffffffffffffffffffffffffffffffffff19166020820180517bffffffffffffffffffffffffffffffffffffffffffffffffffffffff83818316178352505050506100fd60201b60201c565b50565b60008151905060006a636f6e736f6c652e6c6f679050602083016000808483855afa5050505050565b600061013182610181565b61013b818561018c565b935061014b81856020860161019d565b610154816101d0565b840191505092915050565b600060208201905081810360008301526101798184610126565b905092915050565b600081519050919050565b600082825260208201905092915050565b60005b838110156101bb5780820151818401526020810190506101a0565b838111156101ca576000848401525b50505050565b6000601f19601f8301169050919050565b6105f1806101f06000396000f3fe608060405234801561001057600080fd5b506004361061004c5760003560e01c80632287f46d146100515780634923100e14610081578063af42d106146100b1578063f3fe12c9146100cd575b600080fd5b61006b60048036038101906100669190610371565b6100fd565b6040516100789190610442565b60405180910390f35b61009b60048036038101906100969190610371565b610133565b6040516100a89190610442565b60405180910390f35b6100cb60048036038101906100c69190610371565b610167565b005b6100e760048036038101906100e29190610371565b6101a1565b6040516100f49190610442565b60405180910390f35b6000818051602081018201805184825260208301602085012081835280955050505050506000915054906101000a900460ff1681565b60008082604051610144919061042b565b908152602001604051809103902060009054906101000a900460ff169050919050565b6001600082604051610179919061042b565b908152602001604051809103902060006101000a81548160ff02191690831515021790555050565b6000806101e3836040518060400160405280600581526020017f70726f6f66000000000000000000000000000000000000000000000000000000815250610287565b905080915050919050565b61028481604051602401610202919061045d565b6040516020818303038152906040527f41304fac000000000000000000000000000000000000000000000000000000007bffffffffffffffffffffffffffffffffffffffffffffffffffffffff19166020820180517bffffffffffffffffffffffffffffffffffffffffffffffffffffffff83818316178352505050506102e0565b50565b60008160405160200161029a919061042b565b60405160208183030381529060405280519060200120836040516020016102c1919061042b565b6040516020818303038152906040528051906020012014905092915050565b60008151905060006a636f6e736f6c652e6c6f679050602083016000808483855afa5050505050565b600061031c610317846104a4565b61047f565b90508281526020810184848401111561033457600080fd5b61033f848285610508565b509392505050565b600082601f83011261035857600080fd5b8135610368848260208601610309565b91505092915050565b60006020828403121561038357600080fd5b600082013567ffffffffffffffff81111561039d57600080fd5b6103a984828501610347565b91505092915050565b6103bb816104fc565b82525050565b60006103cc826104d5565b6103d681856104e0565b93506103e6818560208601610517565b6103ef816105aa565b840191505092915050565b6000610405826104d5565b61040f81856104f1565b935061041f818560208601610517565b80840191505092915050565b600061043782846103fa565b915081905092915050565b600060208201905061045760008301846103b2565b92915050565b6000602082019050818103600083015261047781846103c1565b905092915050565b600061048961049a565b9050610495828261054a565b919050565b6000604051905090565b600067ffffffffffffffff8211156104bf576104be61057b565b5b6104c8826105aa565b9050602081019050919050565b600081519050919050565b600082825260208201905092915050565b600081905092915050565b60008115159050919050565b82818337600083830152505050565b60005b8381101561053557808201518184015260208101905061051a565b83811115610544576000848401525b50505050565b610553826105aa565b810181811067ffffffffffffffff821117156105725761057161057b565b5b80604052505050565b7f4e487b7100000000000000000000000000000000000000000000000000000000600052604160045260246000fd5b6000601f19601f830116905091905056fea2646970667358221220ab514e7c010bbb545ba7eb3d0f99fd8cb2e0f5ed353ca3256d0e635b1866f47864736f6c63430008040033",
  "linkReferences": {},
  "deployedLinkReferences": {}
}