{
  "_format": "hh-sol-artifact-1",
  "contractName": "TokenDistributor",
  "sourceName": "contracts/gitcoin/TokenDistributor.sol",
  "abi": [
    {
      "inputs": [
        {
          "internalType": "address",
          "name": "_token",
          "type": "address"
        },
        {
          "internalType": "address",
          "name": "_timeLock",
          "type": "address"
        },
        {
          "internalType": "bytes32",
          "name": "_merkleRoot",
          "type": "bytes32"
        }
      ],
      "stateMutability": "nonpayable",
      "type": "constructor"
    },
    {
      "anonymous": false,
      "inputs": [
        {
          "indexed": false,
          "internalType": "uint256",
          "name": "user_id",
          "type": "uint256"
        },
        {
          "indexed": false,
          "internalType": "address",
          "name": "account",
          "type": "address"
        },
        {
          "indexed": false,
          "internalType": "uint256",
          "name": "amount",
          "type": "uint256"
        },
        {
          "indexed": false,
          "internalType": "bytes32",
          "name": "leaf",
          "type": "bytes32"
        }
      ],
      "name": "Claimed",
      "type": "event"
    },
    {
      "anonymous": false,
      "inputs": [
        {
          "indexed": false,
          "internalType": "uint256",
          "name": "amount",
          "type": "uint256"
        }
      ],
      "name": "TransferUnclaimed",
      "type": "event"
    },
    {
      "inputs": [],
      "name": "CONTRACT_ACTIVE",
      "outputs": [
        {
          "internalType": "uint256",
          "name": "",
          "type": "uint256"
        }
      ],
      "stateMutability": "view",
      "type": "function"
    },
    {
      "inputs": [
        {
          "internalType": "uint32",
          "name": "user_id",
          "type": "uint32"
        },
        {
          "internalType": "address",
          "name": "delegate_to",
          "type": "address"
        },
        {
          "internalType": "bytes32[]",
          "name": "merkle_proof",
          "type": "bytes32[]"
        },
        {
          "internalType": "bytes32",
          "name": "leaf",
          "type": "bytes32"
        },
        {
          "internalType": "address",
          "name": "temporary_address",
          "type": "address"
        },
        {
          "internalType": "bytes",
          "name": "leaf_signature_hex",
          "type": "bytes"
        }
      ],
      "name": "claimTokens",
      "outputs": [],
      "stateMutability": "nonpayable",
      "type": "function"
    },
    {
      "inputs": [],
      "name": "deployTime",
      "outputs": [
        {
          "internalType": "uint256",
          "name": "",
          "type": "uint256"
        }
      ],
      "stateMutability": "view",
      "type": "function"
    },
    {
      "inputs": [
        {
          "internalType": "uint256",
          "name": "index",
          "type": "uint256"
        }
      ],
      "name": "isClaimed",
      "outputs": [
        {
          "internalType": "bool",
          "name": "",
          "type": "bool"
        }
      ],
      "stateMutability": "view",
      "type": "function"
    },
    {
      "inputs": [],
      "name": "merkleRoot",
      "outputs": [
        {
          "internalType": "bytes32",
          "name": "",
          "type": "bytes32"
        }
      ],
      "stateMutability": "view",
      "type": "function"
    },
    {
      "inputs": [],
      "name": "timeLockContract",
      "outputs": [
        {
          "internalType": "address",
          "name": "",
          "type": "address"
        }
      ],
      "stateMutability": "view",
      "type": "function"
    },
    {
      "inputs": [],
      "name": "token",
      "outputs": [
        {
          "internalType": "address",
          "name": "",
          "type": "address"
        }
      ],
      "stateMutability": "view",
      "type": "function"
    },
    {
      "inputs": [],
      "name": "transferUnclaimed",
      "outputs": [],
      "stateMutability": "nonpayable",
      "type": "function"
    }
  ],
  "bytecode": "0x61010060405234801561001157600080fd5b506040516111733803806111738339818101604052606081101561003457600080fd5b5080516020808301516040938401516001600160601b0319606085811b8216608090815260e084905284821b90921660c09081524260a09081528851918201895260039382019384526247544360e81b908201529182528651808801885260058152640312e302e360dc1b8187015294820194909452600195810195909552309285019290925291926100c6906100d2565b6000555061015b915050565b805180516020918201208183015180519083012060408085015160608087015183517f8b73c3c69bb8fe3d512ecc4cf759cc79239f7b179b0ffacaa9a75d522b39400f81890152808501969096529085019390935260808401526001600160a01b0390911660a0808401919091528151808403909101815260c090920190528051910120919050565b60805160601c60a05160c05160601c60e051610fba6101b96000398061023952806106a552508061025d52806103f05250806102855280610528525080610301528061042452806107e252806109535280610aa75250610fba6000f3fe608060405234801561001057600080fd5b50600436106100885760003560e01c80639e34070f1161005b5780639e34070f146100ea578063aa56928c1461011b578063d076bbca14610227578063fc0c546a1461022f57610088565b80632eb4a7ab1461008d5780632f660362146100a757806352e88c84146100d85780637a40624b146100e2575b600080fd5b610095610237565b60408051918252519081900360200190f35b6100af61025b565b6040805173ffffffffffffffffffffffffffffffffffffffff9092168252519081900360200190f35b6100e061027f565b005b610095610526565b6101076004803603602081101561010057600080fd5b503561054a565b604080519115158252519081900360200190f35b6100e0600480360360c081101561013157600080fd5b63ffffffff8235169173ffffffffffffffffffffffffffffffffffffffff6020820135169181019060608101604082013564010000000081111561017457600080fd5b82018360208201111561018657600080fd5b803590602001918460208302840111640100000000831117156101a857600080fd5b9193909282359273ffffffffffffffffffffffffffffffffffffffff6020820135169291906060810190604001356401000000008111156101e857600080fd5b8201836020820111156101fa57600080fd5b8035906020019184600183028401116401000000008311171561021c57600080fd5b50909250905061056e565b61009561094a565b6100af610951565b7f000000000000000000000000000000000000000000000000000000000000000081565b7f000000000000000000000000000000000000000000000000000000000000000081565b62278d007f0000000000000000000000000000000000000000000000000000000000000000014210156102fd576040517f08c379a000000000000000000000000000000000000000000000000000000000815260040180806020018281038252602b815260200180610e46602b913960400191505060405180910390fd5b60007f000000000000000000000000000000000000000000000000000000000000000073ffffffffffffffffffffffffffffffffffffffff166370a08231306040518263ffffffff1660e01b8152600401808273ffffffffffffffffffffffffffffffffffffffff16815260200191505060206040518083038186803b15801561038657600080fd5b505afa15801561039a573d6000803e3d6000fd5b505050506040513d60208110156103b057600080fd5b5051604080517fa9059cbb00000000000000000000000000000000000000000000000000000000815273ffffffffffffffffffffffffffffffffffffffff7f0000000000000000000000000000000000000000000000000000000000000000811660048301526024820184905291519293507f00000000000000000000000000000000000000000000000000000000000000009091169163a9059cbb916044808201926020929091908290030181600087803b15801561046f57600080fd5b505af1158015610483573d6000803e3d6000fd5b505050506040513d602081101561049957600080fd5b50516104f0576040517f08c379a000000000000000000000000000000000000000000000000000000000815260040180806020018281038252602c815260200180610ec2602c913960400191505060405180910390fd5b6040805182815290517f0ddb3ab0ee452a393437c5d8f69f476f1dce0fae03bf5942b36a4e23c3d378369181900360200190a150565b7f000000000000000000000000000000000000000000000000000000000000000081565b610100810460009081526001602081905260409091205460ff9092161b9081161490565b61057d8863ffffffff1661054a565b156105d3576040517f08c379a0000000000000000000000000000000000000000000000000000000008152600401808060200182810382526029815260200180610f376029913960400191505060405180910390fd5b6040805163ffffffff8a1660208083019190915273ffffffffffffffffffffffffffffffffffffffff86168284015282518083038401815260609092019092528051910120848114610670576040517f08c379a0000000000000000000000000000000000000000000000000000000008152600401808060200182810382526025815260200180610f606025913960400191505060405180910390fd5b6106d08787808060200260200160405190810160405280939291908181526020018383602002808284376000920191909152507f000000000000000000000000000000000000000000000000000000000000000092508991506109759050565b610725576040517f08c379a0000000000000000000000000000000000000000000000000000000008152600401808060200182810382526027815260200180610f106027913960400191505060405180910390fd5b6107678584848080601f016020809104026020016040519081016040528093929190818152602001838380828437600092019190915250899250610a1e915050565b6107bc576040517f08c379a000000000000000000000000000000000000000000000000000000000815260040180806020018281038252602f815260200180610e93602f913960400191505060405180910390fd5b6107c588610a5f565b6107d48963ffffffff16610b0c565b60006107de610b34565b90507f000000000000000000000000000000000000000000000000000000000000000073ffffffffffffffffffffffffffffffffffffffff1663a9059cbb33836040518363ffffffff1660e01b8152600401808373ffffffffffffffffffffffffffffffffffffffff16815260200182815260200192505050602060405180830381600087803b15801561087157600080fd5b505af1158015610885573d6000803e3d6000fd5b505050506040513d602081101561089b57600080fd5b50516108f2576040517f08c379a0000000000000000000000000000000000000000000000000000000008152600401808060200182810382526022815260200180610e716022913960400191505060405180910390fd5b6040805163ffffffff8c1681523360208201528082018390526060810188905290517f04672052dcb6b5b19a9cc2ec1b8f447f1f5e47b5e24cfa5e4ffb640d63ca2be79181900360800190a150505050505050505050565b62278d0081565b7f000000000000000000000000000000000000000000000000000000000000000081565b600081815b8551811015610a1357600086828151811061099157fe5b602002602001015190508083116109d85782816040516020018083815260200182815260200192505050604051602081830303815290604052805190602001209250610a0a565b808360405160200180838152602001828152602001925050506040516020818303038152906040528051906020012092505b5060010161097a565b509092149392505050565b600080610a2a85610b41565b90506000610a388286610b92565b73ffffffffffffffffffffffffffffffffffffffff90811690851614925050509392505050565b604080517f5c19a95c00000000000000000000000000000000000000000000000000000000815273ffffffffffffffffffffffffffffffffffffffff838116600483015291517f000000000000000000000000000000000000000000000000000000000000000092831691635c19a95c91602480830192600092919082900301818387803b158015610af057600080fd5b505af1158015610b04573d6000803e3d6000fd5b505050505050565b61010081046000908152600160208190526040909120805460ff9093169190911b9091179055565b68056bc75e2d6310000090565b604080517f19457468657265756d205369676e6564204d6573736167653a0a333200000000602080830191909152603c8083019490945282518083039094018452605c909101909152815191012090565b60008151604114610c0457604080517f08c379a000000000000000000000000000000000000000000000000000000000815260206004820152601f60248201527f45434453413a20696e76616c6964207369676e6174757265206c656e67746800604482015290519081900360640190fd5b60208201516040830151606084015160001a610c2286828585610c2c565b9695505050505050565b60007f7fffffffffffffffffffffffffffffff5d576e7357a4501ddfe92f46681b20a0821115610ca7576040517f08c379a0000000000000000000000000000000000000000000000000000000008152600401808060200182810382526022815260200180610e246022913960400191505060405180910390fd5b8360ff16601b1480610cbc57508360ff16601c145b610d11576040517f08c379a0000000000000000000000000000000000000000000000000000000008152600401808060200182810382526022815260200180610eee6022913960400191505060405180910390fd5b600060018686868660405160008152602001604052604051808581526020018460ff1681526020018381526020018281526020019450505050506020604051602081039080840390855afa158015610d6d573d6000803e3d6000fd5b50506040517fffffffffffffffffffffffffffffffffffffffffffffffffffffffffffffffe0015191505073ffffffffffffffffffffffffffffffffffffffff8116610e1a57604080517f08c379a000000000000000000000000000000000000000000000000000000000815260206004820152601860248201527f45434453413a20696e76616c6964207369676e61747572650000000000000000604482015290519081900360640190fd5b9594505050505056fe45434453413a20696e76616c6964207369676e6174757265202773272076616c7565546f6b656e4469737472696275746f723a20436f6e7472616374206973207374696c6c206163746976652e546f6b656e4469737472696275746f723a205472616e73666572206661696c65642e546f6b656e4469737472696275746f723a2056616c6964204c656166205369676e6174757265207265717569726564546f6b656e4469737472696275746f723a205472616e7366657220756e636c61696d6564206661696c65642e45434453413a20696e76616c6964207369676e6174757265202776272076616c7565546f6b656e4469737472696275746f723a2056616c69642050726f6f662052657175697265642e546f6b656e4469737472696275746f723a20546f6b656e7320616c726561647920636c61696d65642e546f6b656e4469737472696275746f723a204c6561662048617368204d69736d617463682ea264697066735822122038b7fb4594874b2567876a640eebfa92cdcf739956e5a508dfca6f403f9fb55964736f6c634300060c0033",
  "linkReferences": {},
  "deployedLinkReferences": {}
}