{
  "_format": "hh-sol-artifact-1",
  "contractName": "TokenDistributor",
  "sourceName": "contracts/gitcoin/TokenDistributor.sol",
  "abi": [
    {
      "inputs": [
        {
          "internalType": "address",
          "name": "_token",
          "type": "address"
        },
        {
          "internalType": "address",
          "name": "_timeLock",
          "type": "address"
        },
        {
          "internalType": "bytes32",
          "name": "_merkleRoot",
          "type": "bytes32"
        }
      ],
      "stateMutability": "nonpayable",
      "type": "constructor"
    },
    {
      "anonymous": false,
      "inputs": [
        {
          "indexed": false,
          "internalType": "uint256",
          "name": "user_id",
          "type": "uint256"
        },
        {
          "indexed": false,
          "internalType": "address",
          "name": "account",
          "type": "address"
        },
        {
          "indexed": false,
          "internalType": "uint256",
          "name": "amount",
          "type": "uint256"
        },
        {
          "indexed": false,
          "internalType": "bytes32",
          "name": "leaf",
          "type": "bytes32"
        }
      ],
      "name": "Claimed",
      "type": "event"
    },
    {
      "anonymous": false,
      "inputs": [
        {
          "indexed": false,
          "internalType": "uint256",
          "name": "amount",
          "type": "uint256"
        }
      ],
      "name": "TransferUnclaimed",
      "type": "event"
    },
    {
      "inputs": [],
      "name": "CONTRACT_ACTIVE",
      "outputs": [
        {
          "internalType": "uint256",
          "name": "",
          "type": "uint256"
        }
      ],
      "stateMutability": "view",
      "type": "function"
    },
    {
      "inputs": [],
      "name": "HALVE_PERIOD",
      "outputs": [
        {
          "internalType": "uint256",
          "name": "",
          "type": "uint256"
        }
      ],
      "stateMutability": "view",
      "type": "function"
    },
    {
      "inputs": [],
      "name": "INITIAL_AWARD",
      "outputs": [
        {
          "internalType": "uint256",
          "name": "",
          "type": "uint256"
        }
      ],
      "stateMutability": "view",
      "type": "function"
    },
    {
      "inputs": [
        {
          "internalType": "uint32",
          "name": "user_id",
          "type": "uint32"
        },
        {
          "internalType": "address",
          "name": "delegate_to",
          "type": "address"
        },
        {
          "internalType": "bytes32[]",
          "name": "merkle_proof",
          "type": "bytes32[]"
        },
        {
          "internalType": "address",
          "name": "temporary_address",
          "type": "address"
        },
        {
          "internalType": "bytes",
          "name": "sender_signature",
          "type": "bytes"
        }
      ],
      "name": "claimTokens",
      "outputs": [],
      "stateMutability": "nonpayable",
      "type": "function"
    },
    {
      "inputs": [],
      "name": "currentAward",
      "outputs": [
        {
          "internalType": "uint256",
          "name": "",
          "type": "uint256"
        }
      ],
      "stateMutability": "view",
      "type": "function"
    },
    {
      "inputs": [],
      "name": "deployTime",
      "outputs": [
        {
          "internalType": "uint256",
          "name": "",
          "type": "uint256"
        }
      ],
      "stateMutability": "view",
      "type": "function"
    },
    {
      "inputs": [
        {
          "internalType": "uint256",
          "name": "index",
          "type": "uint256"
        }
      ],
      "name": "isClaimed",
      "outputs": [
        {
          "internalType": "bool",
          "name": "",
          "type": "bool"
        }
      ],
      "stateMutability": "view",
      "type": "function"
    },
    {
      "inputs": [
        {
          "internalType": "bytes",
          "name": "sender_signature",
          "type": "bytes"
        },
        {
          "internalType": "address",
          "name": "expected_signer",
          "type": "address"
        }
      ],
      "name": "isSignedBy",
      "outputs": [
        {
          "internalType": "bool",
          "name": "",
          "type": "bool"
        }
      ],
      "stateMutability": "view",
      "type": "function"
    },
    {
      "inputs": [],
      "name": "merkleRoot",
      "outputs": [
        {
          "internalType": "bytes32",
          "name": "",
          "type": "bytes32"
        }
      ],
      "stateMutability": "view",
      "type": "function"
    },
    {
      "inputs": [],
      "name": "nextHalvePeriod",
      "outputs": [
        {
          "internalType": "uint256",
          "name": "",
          "type": "uint256"
        }
      ],
      "stateMutability": "view",
      "type": "function"
    },
    {
      "inputs": [],
      "name": "timeLockContract",
      "outputs": [
        {
          "internalType": "address",
          "name": "",
          "type": "address"
        }
      ],
      "stateMutability": "view",
      "type": "function"
    },
    {
      "inputs": [],
      "name": "timeTillAwardHalve",
      "outputs": [
        {
          "internalType": "uint256",
          "name": "",
          "type": "uint256"
        }
      ],
      "stateMutability": "view",
      "type": "function"
    },
    {
      "inputs": [],
      "name": "token",
      "outputs": [
        {
          "internalType": "address",
          "name": "",
          "type": "address"
        }
      ],
      "stateMutability": "view",
      "type": "function"
    },
    {
      "inputs": [],
      "name": "transferUnclaimed",
      "outputs": [],
      "stateMutability": "nonpayable",
      "type": "function"
    }
  ],
  "bytecode": "0x61010060405234801561001157600080fd5b506040516114473803806114478339818101604052606081101561003457600080fd5b5080516020808301516040938401516001600160601b0319606085811b8216608090815260e084905284821b90921660c09081524260a09081528851918201895260039382019384526247544360e81b908201529182528651808801885260058152640312e302e360dc1b8187015294820194909452600195810195909552309285019290925291926100c6906100d2565b6000555061015b915050565b805180516020918201208183015180519083012060408085015160608087015183517f8b73c3c69bb8fe3d512ecc4cf759cc79239f7b179b0ffacaa9a75d522b39400f81890152808501969096529085019390935260808401526001600160a01b0390911660a0808401919091528151808403909101815260c090920190528051910120919050565b60805160601c60a05160c05160601c60e0516112846101c3600039806103545280610962525080610378528061053a52508061039f52806103cf528061074852806107aa52508061044b528061056e5280610b475280610cb05280610e5d52506112846000f3fe608060405234801561001057600080fd5b50600436106100ea5760003560e01c80637a40624b1161008c578063d076bbca11610066578063d076bbca14610223578063dd15603f1461022b578063e66b20c614610233578063fc0c546a14610337576100ea565b80637a40624b146101f65780639e34070f146101fe578063a73401c31461021b576100ea565b80632f660362116100c85780632f660362146101195780632f986d3a1461014a57806352e88c841461015257806356f7ad441461015c576100ea565b8063069eaab4146100ef5780631c47b753146101095780632eb4a7ab14610111575b600080fd5b6100f761033f565b60408051918252519081900360200190f35b6100f761034c565b6100f7610352565b610121610376565b6040805173ffffffffffffffffffffffffffffffffffffffff9092168252519081900360200190f35b6100f761039a565b61015a6103c9565b005b6101e26004803603604081101561017257600080fd5b81019060208101813564010000000081111561018d57600080fd5b82018360208201111561019f57600080fd5b803590602001918460018302840111640100000000831117156101c157600080fd5b91935091503573ffffffffffffffffffffffffffffffffffffffff16610670565b604080519115158252519081900360200190f35b6100f7610746565b6101e26004803603602081101561021457600080fd5b503561076a565b6100f761078e565b6100f761079f565b6100f76107a6565b61015a600480360360a081101561024957600080fd5b63ffffffff8235169173ffffffffffffffffffffffffffffffffffffffff6020820135169181019060608101604082013564010000000081111561028c57600080fd5b82018360208201111561029e57600080fd5b803590602001918460208302840111640100000000831117156102c057600080fd5b9193909273ffffffffffffffffffffffffffffffffffffffff833516926040810190602001356401000000008111156102f857600080fd5b82018360208201111561030a57600080fd5b8035906020019184600183028401116401000000008311171561032c57600080fd5b50909250905061080d565b610121610cae565b681b1ae4d6e2ef50000081565b61012c81565b7f000000000000000000000000000000000000000000000000000000000000000081565b7f000000000000000000000000000000000000000000000000000000000000000081565b61012c7f0000000000000000000000000000000000000000000000000000000000000000420381900690035b90565b62278d007f000000000000000000000000000000000000000000000000000000000000000001421015610447576040517f08c379a000000000000000000000000000000000000000000000000000000000815260040180806020018281038252602b81526020018061112f602b913960400191505060405180910390fd5b60007f000000000000000000000000000000000000000000000000000000000000000073ffffffffffffffffffffffffffffffffffffffff166370a08231306040518263ffffffff1660e01b8152600401808273ffffffffffffffffffffffffffffffffffffffff16815260200191505060206040518083038186803b1580156104d057600080fd5b505afa1580156104e4573d6000803e3d6000fd5b505050506040513d60208110156104fa57600080fd5b5051604080517fa9059cbb00000000000000000000000000000000000000000000000000000000815273ffffffffffffffffffffffffffffffffffffffff7f0000000000000000000000000000000000000000000000000000000000000000811660048301526024820184905291519293507f00000000000000000000000000000000000000000000000000000000000000009091169163a9059cbb916044808201926020929091908290030181600087803b1580156105b957600080fd5b505af11580156105cd573d6000803e3d6000fd5b505050506040513d60208110156105e357600080fd5b505161063a576040517f08c379a000000000000000000000000000000000000000000000000000000000815260040180806020018281038252602c81526020018061117c602c913960400191505060405180910390fd5b6040805182815290517f0ddb3ab0ee452a393437c5d8f69f476f1dce0fae03bf5942b36a4e23c3d378369181900360200190a150565b6000803360405160200180807f19457468657265756d205369676e6564204d6573736167653a0a323000000000815250601c018273ffffffffffffffffffffffffffffffffffffffff1660601b8152601401915050604051602081830303815290604052805190602001209050600061071f8287878080601f016020809104026020016040519081016040528093929190818152602001838380828437600092019190915250610cd292505050565b73ffffffffffffffffffffffffffffffffffffffff90811690851614925050509392505050565b7f000000000000000000000000000000000000000000000000000000000000000081565b610100810460009081526001602081905260409091205460ff9092161b9081161490565b600061079861039a565b4201905090565b62278d0081565b60007f0000000000000000000000000000000000000000000000000000000000000000420361012c8104600281900a681b1ae4d6e2ef5000008111156107f257600093505050506103c6565b80681b1ae4d6e2ef5000008161080457fe5b04935050505090565b61081c8763ffffffff1661076a565b15610872576040517f08c379a00000000000000000000000000000000000000000000000000000000081526004018080602001828103825260298152602001806111f16029913960400191505060405180910390fd5b73ffffffffffffffffffffffffffffffffffffffff83166108de576040517f08c379a000000000000000000000000000000000000000000000000000000000815260040180806020018281038252602b8152602001806110e2602b913960400191505060405180910390fd5b60008784604051602001808363ffffffff1681526020018273ffffffffffffffffffffffffffffffffffffffff1681526020019250505060405160208183030381529060405280519060200120905061098d8686808060200260200160405190810160405280939291908181526020018383602002808284376000920191909152507f00000000000000000000000000000000000000000000000000000000000000009250859150610d6c9050565b6109e2576040517f08c379a00000000000000000000000000000000000000000000000000000000081526004018080602001828103825260278152602001806111ca6027913960400191505060405180910390fd5b604080517f56f7ad4400000000000000000000000000000000000000000000000000000000815273ffffffffffffffffffffffffffffffffffffffff86166024820152600481019182526044810184905230916356f7ad4491869186918991908190606401858580828437600083820152604051601f9091017fffffffffffffffffffffffffffffffffffffffffffffffffffffffffffffffe016909201965060209550909350505081840390508186803b158015610aa057600080fd5b505afa158015610ab4573d6000803e3d6000fd5b505050506040513d6020811015610aca57600080fd5b5051610b21576040517f08c379a000000000000000000000000000000000000000000000000000000000815260040180806020018281038252603581526020018061121a6035913960400191505060405180910390fd5b610b2a87610e15565b610b398863ffffffff16610ec2565b6000610b436107a6565b90507f000000000000000000000000000000000000000000000000000000000000000073ffffffffffffffffffffffffffffffffffffffff1663a9059cbb33836040518363ffffffff1660e01b8152600401808373ffffffffffffffffffffffffffffffffffffffff16815260200182815260200192505050602060405180830381600087803b158015610bd657600080fd5b505af1158015610bea573d6000803e3d6000fd5b505050506040513d6020811015610c0057600080fd5b5051610c57576040517f08c379a000000000000000000000000000000000000000000000000000000000815260040180806020018281038252602281526020018061115a6022913960400191505060405180910390fd5b6040805163ffffffff8b1681523360208201528082018390526060810184905290517f04672052dcb6b5b19a9cc2ec1b8f447f1f5e47b5e24cfa5e4ffb640d63ca2be79181900360800190a1505050505050505050565b7f000000000000000000000000000000000000000000000000000000000000000081565b60008151604114610d4457604080517f08c379a000000000000000000000000000000000000000000000000000000000815260206004820152601f60248201527f45434453413a20696e76616c6964207369676e6174757265206c656e67746800604482015290519081900360640190fd5b60208201516040830151606084015160001a610d6286828585610eea565b9695505050505050565b600081815b8551811015610e0a576000868281518110610d8857fe5b60200260200101519050808311610dcf5782816040516020018083815260200182815260200192505050604051602081830303815290604052805190602001209250610e01565b808360405160200180838152602001828152602001925050506040516020818303038152906040528051906020012092505b50600101610d71565b509092149392505050565b604080517f5c19a95c00000000000000000000000000000000000000000000000000000000815273ffffffffffffffffffffffffffffffffffffffff838116600483015291517f000000000000000000000000000000000000000000000000000000000000000092831691635c19a95c91602480830192600092919082900301818387803b158015610ea657600080fd5b505af1158015610eba573d6000803e3d6000fd5b505050505050565b61010081046000908152600160208190526040909120805460ff9093169190911b9091179055565b60007f7fffffffffffffffffffffffffffffff5d576e7357a4501ddfe92f46681b20a0821115610f65576040517f08c379a000000000000000000000000000000000000000000000000000000000815260040180806020018281038252602281526020018061110d6022913960400191505060405180910390fd5b8360ff16601b1480610f7a57508360ff16601c145b610fcf576040517f08c379a00000000000000000000000000000000000000000000000000000000081526004018080602001828103825260228152602001806111a86022913960400191505060405180910390fd5b600060018686868660405160008152602001604052604051808581526020018460ff1681526020018381526020018281526020019450505050506020604051602081039080840390855afa15801561102b573d6000803e3d6000fd5b50506040517fffffffffffffffffffffffffffffffffffffffffffffffffffffffffffffffe0015191505073ffffffffffffffffffffffffffffffffffffffff81166110d857604080517f08c379a000000000000000000000000000000000000000000000000000000000815260206004820152601860248201527f45434453413a20696e76616c6964207369676e61747572650000000000000000604482015290519081900360640190fd5b9594505050505056fe546f6b656e4469737472696275746f723a20496e76616c69642074656d706f726172795f6164647265737345434453413a20696e76616c6964207369676e6174757265202773272076616c7565546f6b656e4469737472696275746f723a20436f6e7472616374206973207374696c6c206163746976652e546f6b656e4469737472696275746f723a205472616e73666572206661696c65642e546f6b656e4469737472696275746f723a205472616e7366657220756e636c61696d6564206661696c65642e45434453413a20696e76616c6964207369676e6174757265202776272076616c7565546f6b656e4469737472696275746f723a2056616c69642050726f6f662052657175697265642e546f6b656e4469737472696275746f723a20546f6b656e7320616c726561647920636c61696d65642e546f6b656e4469737472696275746f723a2056616c6964206d73672e73656e646572205369676e6174757265207265717569726564a2646970667358221220b55fcf9fb36b4904725cf81a29f0aa55d2b4d1939e2040e1302c920e86215f1b64736f6c634300060c0033",
  "linkReferences": {},
  "deployedLinkReferences": {}
}