{
  "_format": "hh-sol-artifact-1",
  "contractName": "TokenDistributor",
  "sourceName": "contracts/gitcoin/TokenDistributor.sol",
  "abi": [
    {
      "inputs": [
        {
          "internalType": "address",
          "name": "_token",
          "type": "address"
        },
        {
          "internalType": "address",
          "name": "_timeLock",
          "type": "address"
        },
        {
          "internalType": "bytes32",
          "name": "_merkleRoot",
          "type": "bytes32"
        }
      ],
      "stateMutability": "nonpayable",
      "type": "constructor"
    },
    {
      "anonymous": false,
      "inputs": [
        {
          "indexed": false,
          "internalType": "uint256",
          "name": "user_id",
          "type": "uint256"
        },
        {
          "indexed": false,
          "internalType": "address",
          "name": "account",
          "type": "address"
        },
        {
          "indexed": false,
          "internalType": "uint256",
          "name": "amount",
          "type": "uint256"
        },
        {
          "indexed": false,
          "internalType": "bytes32",
          "name": "leaf",
          "type": "bytes32"
        }
      ],
      "name": "Claimed",
      "type": "event"
    },
    {
      "anonymous": false,
      "inputs": [
        {
          "indexed": false,
          "internalType": "uint256",
          "name": "amount",
          "type": "uint256"
        }
      ],
      "name": "TransferUnclaimed",
      "type": "event"
    },
    {
      "inputs": [],
      "name": "CONTRACT_ACTIVE",
      "outputs": [
        {
          "internalType": "uint256",
          "name": "",
          "type": "uint256"
        }
      ],
      "stateMutability": "view",
      "type": "function"
    },
    {
      "inputs": [],
      "name": "HALVE_PERIOD",
      "outputs": [
        {
          "internalType": "uint256",
          "name": "",
          "type": "uint256"
        }
      ],
      "stateMutability": "view",
      "type": "function"
    },
    {
      "inputs": [],
      "name": "INITIAL_AWARD",
      "outputs": [
        {
          "internalType": "uint256",
          "name": "",
          "type": "uint256"
        }
      ],
      "stateMutability": "view",
      "type": "function"
    },
    {
      "inputs": [
        {
          "internalType": "uint32",
          "name": "user_id",
          "type": "uint32"
        },
        {
          "internalType": "address",
          "name": "delegate_to",
          "type": "address"
        },
        {
          "internalType": "bytes32[]",
          "name": "merkle_proof",
          "type": "bytes32[]"
        },
        {
          "internalType": "bytes32",
          "name": "leaf",
          "type": "bytes32"
        },
        {
          "internalType": "address",
          "name": "temporary_address",
          "type": "address"
        },
        {
          "internalType": "bytes",
          "name": "leaf_signature_hex",
          "type": "bytes"
        }
      ],
      "name": "claimTokens",
      "outputs": [],
      "stateMutability": "nonpayable",
      "type": "function"
    },
    {
      "inputs": [],
      "name": "currentAward",
      "outputs": [
        {
          "internalType": "uint256",
          "name": "",
          "type": "uint256"
        }
      ],
      "stateMutability": "view",
      "type": "function"
    },
    {
      "inputs": [],
      "name": "deployTime",
      "outputs": [
        {
          "internalType": "uint256",
          "name": "",
          "type": "uint256"
        }
      ],
      "stateMutability": "view",
      "type": "function"
    },
    {
      "inputs": [
        {
          "internalType": "uint256",
          "name": "index",
          "type": "uint256"
        }
      ],
      "name": "isClaimed",
      "outputs": [
        {
          "internalType": "bool",
          "name": "",
          "type": "bool"
        }
      ],
      "stateMutability": "view",
      "type": "function"
    },
    {
      "inputs": [],
      "name": "merkleRoot",
      "outputs": [
        {
          "internalType": "bytes32",
          "name": "",
          "type": "bytes32"
        }
      ],
      "stateMutability": "view",
      "type": "function"
    },
    {
      "inputs": [],
      "name": "nextHalvePeriod",
      "outputs": [
        {
          "internalType": "uint256",
          "name": "",
          "type": "uint256"
        }
      ],
      "stateMutability": "view",
      "type": "function"
    },
    {
      "inputs": [],
      "name": "timeLockContract",
      "outputs": [
        {
          "internalType": "address",
          "name": "",
          "type": "address"
        }
      ],
      "stateMutability": "view",
      "type": "function"
    },
    {
      "inputs": [],
      "name": "timeTillAwardHalve",
      "outputs": [
        {
          "internalType": "uint256",
          "name": "",
          "type": "uint256"
        }
      ],
      "stateMutability": "view",
      "type": "function"
    },
    {
      "inputs": [],
      "name": "token",
      "outputs": [
        {
          "internalType": "address",
          "name": "",
          "type": "address"
        }
      ],
      "stateMutability": "view",
      "type": "function"
    },
    {
      "inputs": [],
      "name": "transferUnclaimed",
      "outputs": [],
      "stateMutability": "nonpayable",
      "type": "function"
    }
  ],
  "bytecode": "0x61010060405234801561001157600080fd5b506040516112ac3803806112ac8339818101604052606081101561003457600080fd5b5080516020808301516040938401516001600160601b0319606085811b8216608090815260e084905284821b90921660c09081524260a09081528851918201895260039382019384526247544360e81b908201529182528651808801885260058152640312e302e360dc1b8187015294820194909452600195810195909552309285019290925291926100c6906100d2565b6000555061015b915050565b805180516020918201208183015180519083012060408085015160608087015183517f8b73c3c69bb8fe3d512ecc4cf759cc79239f7b179b0ffacaa9a75d522b39400f81890152808501969096529085019390935260808401526001600160a01b0390911660a0808401919091528151808403909101815260c090920190528051910120919050565b60805160601c60a05160c05160601c60e0516110e96101c3600039806102cc52806107785250806102f052806104b2525080610317528061034752806105ea5280610a285250806103c352806104e652806108b55280610a8f5280610be352506110e96000f3fe608060405234801561001057600080fd5b50600436106100df5760003560e01c80637a40624b1161008c578063aa56928c11610066578063aa56928c14610192578063d076bbca1461029e578063dd15603f146102a6578063fc0c546a146102ae576100df565b80637a40624b146101515780639e34070f14610159578063a73401c31461018a576100df565b80632f660362116100bd5780632f6603621461010e5780632f986d3a1461013f57806352e88c8414610147576100df565b8063069eaab4146100e45780631c47b753146100fe5780632eb4a7ab14610106575b600080fd5b6100ec6102b6565b60408051918252519081900360200190f35b6100ec6102c4565b6100ec6102ca565b6101166102ee565b6040805173ffffffffffffffffffffffffffffffffffffffff9092168252519081900360200190f35b6100ec610312565b61014f610341565b005b6100ec6105e8565b6101766004803603602081101561016f57600080fd5b503561060c565b604080519115158252519081900360200190f35b6100ec610630565b61014f600480360360c08110156101a857600080fd5b63ffffffff8235169173ffffffffffffffffffffffffffffffffffffffff602082013516918101906060810160408201356401000000008111156101eb57600080fd5b8201836020820111156101fd57600080fd5b8035906020019184602083028401116401000000008311171561021f57600080fd5b9193909282359273ffffffffffffffffffffffffffffffffffffffff60208201351692919060608101906040013564010000000081111561025f57600080fd5b82018360208201111561027157600080fd5b8035906020019184600183028401116401000000008311171561029357600080fd5b509092509050610641565b6100ec610a1d565b6100ec610a24565b610116610a8d565b6903782dace9d90000000081565b61012c81565b7f000000000000000000000000000000000000000000000000000000000000000081565b7f000000000000000000000000000000000000000000000000000000000000000081565b61012c7f0000000000000000000000000000000000000000000000000000000000000000420381900690035b90565b62278d007f0000000000000000000000000000000000000000000000000000000000000000014210156103bf576040517f08c379a000000000000000000000000000000000000000000000000000000000815260040180806020018281038252602b815260200180610f75602b913960400191505060405180910390fd5b60007f000000000000000000000000000000000000000000000000000000000000000073ffffffffffffffffffffffffffffffffffffffff166370a08231306040518263ffffffff1660e01b8152600401808273ffffffffffffffffffffffffffffffffffffffff16815260200191505060206040518083038186803b15801561044857600080fd5b505afa15801561045c573d6000803e3d6000fd5b505050506040513d602081101561047257600080fd5b5051604080517fa9059cbb00000000000000000000000000000000000000000000000000000000815273ffffffffffffffffffffffffffffffffffffffff7f0000000000000000000000000000000000000000000000000000000000000000811660048301526024820184905291519293507f00000000000000000000000000000000000000000000000000000000000000009091169163a9059cbb916044808201926020929091908290030181600087803b15801561053157600080fd5b505af1158015610545573d6000803e3d6000fd5b505050506040513d602081101561055b57600080fd5b50516105b2576040517f08c379a000000000000000000000000000000000000000000000000000000000815260040180806020018281038252602c815260200180610ff1602c913960400191505060405180910390fd5b6040805182815290517f0ddb3ab0ee452a393437c5d8f69f476f1dce0fae03bf5942b36a4e23c3d378369181900360200190a150565b7f000000000000000000000000000000000000000000000000000000000000000081565b610100810460009081526001602081905260409091205460ff9092161b9081161490565b600061063a610312565b4201905090565b6106508863ffffffff1661060c565b156106a6576040517f08c379a00000000000000000000000000000000000000000000000000000000081526004018080602001828103825260298152602001806110666029913960400191505060405180910390fd5b6040805163ffffffff8a1660208083019190915273ffffffffffffffffffffffffffffffffffffffff86168284015282518083038401815260609092019092528051910120848114610743576040517f08c379a000000000000000000000000000000000000000000000000000000000815260040180806020018281038252602581526020018061108f6025913960400191505060405180910390fd5b6107a38787808060200260200160405190810160405280939291908181526020018383602002808284376000920191909152507f00000000000000000000000000000000000000000000000000000000000000009250899150610ab19050565b6107f8576040517f08c379a000000000000000000000000000000000000000000000000000000000815260040180806020018281038252602781526020018061103f6027913960400191505060405180910390fd5b61083a8584848080601f016020809104026020016040519081016040528093929190818152602001838380828437600092019190915250899250610b5a915050565b61088f576040517f08c379a000000000000000000000000000000000000000000000000000000000815260040180806020018281038252602f815260200180610fc2602f913960400191505060405180910390fd5b61089888610b9b565b6108a78963ffffffff16610c48565b60006108b1610a24565b90507f000000000000000000000000000000000000000000000000000000000000000073ffffffffffffffffffffffffffffffffffffffff1663a9059cbb33836040518363ffffffff1660e01b8152600401808373ffffffffffffffffffffffffffffffffffffffff16815260200182815260200192505050602060405180830381600087803b15801561094457600080fd5b505af1158015610958573d6000803e3d6000fd5b505050506040513d602081101561096e57600080fd5b50516109c5576040517f08c379a0000000000000000000000000000000000000000000000000000000008152600401808060200182810382526022815260200180610fa06022913960400191505060405180910390fd5b6040805163ffffffff8c1681523360208201528082018390526060810188905290517f04672052dcb6b5b19a9cc2ec1b8f447f1f5e47b5e24cfa5e4ffb640d63ca2be79181900360800190a150505050505050505050565b62278d0081565b60007f0000000000000000000000000000000000000000000000000000000000000000420361012c8104600281900a6903782dace9d900000000811115610a71576000935050505061033e565b806903782dace9d90000000081610a8457fe5b04935050505090565b7f000000000000000000000000000000000000000000000000000000000000000081565b600081815b8551811015610b4f576000868281518110610acd57fe5b60200260200101519050808311610b145782816040516020018083815260200182815260200192505050604051602081830303815290604052805190602001209250610b46565b808360405160200180838152602001828152602001925050506040516020818303038152906040528051906020012092505b50600101610ab6565b509092149392505050565b600080610b6685610c70565b90506000610b748286610cc1565b73ffffffffffffffffffffffffffffffffffffffff90811690851614925050509392505050565b604080517f5c19a95c00000000000000000000000000000000000000000000000000000000815273ffffffffffffffffffffffffffffffffffffffff838116600483015291517f000000000000000000000000000000000000000000000000000000000000000092831691635c19a95c91602480830192600092919082900301818387803b158015610c2c57600080fd5b505af1158015610c40573d6000803e3d6000fd5b505050505050565b61010081046000908152600160208190526040909120805460ff9093169190911b9091179055565b604080517f19457468657265756d205369676e6564204d6573736167653a0a333200000000602080830191909152603c8083019490945282518083039094018452605c909101909152815191012090565b60008151604114610d3357604080517f08c379a000000000000000000000000000000000000000000000000000000000815260206004820152601f60248201527f45434453413a20696e76616c6964207369676e6174757265206c656e67746800604482015290519081900360640190fd5b60208201516040830151606084015160001a610d5186828585610d5b565b9695505050505050565b60007f7fffffffffffffffffffffffffffffff5d576e7357a4501ddfe92f46681b20a0821115610dd6576040517f08c379a0000000000000000000000000000000000000000000000000000000008152600401808060200182810382526022815260200180610f536022913960400191505060405180910390fd5b8360ff16601b1480610deb57508360ff16601c145b610e40576040517f08c379a000000000000000000000000000000000000000000000000000000000815260040180806020018281038252602281526020018061101d6022913960400191505060405180910390fd5b600060018686868660405160008152602001604052604051808581526020018460ff1681526020018381526020018281526020019450505050506020604051602081039080840390855afa158015610e9c573d6000803e3d6000fd5b50506040517fffffffffffffffffffffffffffffffffffffffffffffffffffffffffffffffe0015191505073ffffffffffffffffffffffffffffffffffffffff8116610f4957604080517f08c379a000000000000000000000000000000000000000000000000000000000815260206004820152601860248201527f45434453413a20696e76616c6964207369676e61747572650000000000000000604482015290519081900360640190fd5b9594505050505056fe45434453413a20696e76616c6964207369676e6174757265202773272076616c7565546f6b656e4469737472696275746f723a20436f6e7472616374206973207374696c6c206163746976652e546f6b656e4469737472696275746f723a205472616e73666572206661696c65642e546f6b656e4469737472696275746f723a2056616c6964204c656166205369676e6174757265207265717569726564546f6b656e4469737472696275746f723a205472616e7366657220756e636c61696d6564206661696c65642e45434453413a20696e76616c6964207369676e6174757265202776272076616c7565546f6b656e4469737472696275746f723a2056616c69642050726f6f662052657175697265642e546f6b656e4469737472696275746f723a20546f6b656e7320616c726561647920636c61696d65642e546f6b656e4469737472696275746f723a204c6561662048617368204d69736d617463682ea26469706673582212209c8b05274c88c7fa288e1abf6ef375bbb91a4dd272613240f2f8ddc8ab589b7264736f6c634300060c0033",
  "linkReferences": {},
  "deployedLinkReferences": {}
}